{
  "_format": "hh-sol-artifact-1",
  "contractName": "RariNFT",
  "sourceName": "contracts/RariNFT.sol",
  "abi": [
    {
      "inputs": [],
      "stateMutability": "nonpayable",
      "type": "constructor"
    },
    {
      "anonymous": false,
      "inputs": [
        {
          "indexed": true,
          "internalType": "address",
          "name": "owner",
          "type": "address"
        },
        {
          "indexed": true,
          "internalType": "address",
          "name": "approved",
          "type": "address"
        },
        {
          "indexed": true,
          "internalType": "uint256",
          "name": "tokenId",
          "type": "uint256"
        }
      ],
      "name": "Approval",
      "type": "event"
    },
    {
      "anonymous": false,
      "inputs": [
        {
          "indexed": true,
          "internalType": "address",
          "name": "owner",
          "type": "address"
        },
        {
          "indexed": true,
          "internalType": "address",
          "name": "operator",
          "type": "address"
        },
        {
          "indexed": false,
          "internalType": "bool",
          "name": "approved",
          "type": "bool"
        }
      ],
      "name": "ApprovalForAll",
      "type": "event"
    },
    {
      "anonymous": false,
      "inputs": [
        {
          "indexed": false,
          "internalType": "address",
          "name": "_sender",
          "type": "address"
        },
        {
          "indexed": false,
          "internalType": "uint256",
          "name": "_tokenId",
          "type": "uint256"
        }
      ],
      "name": "NewRareNFTMinted",
      "type": "event"
    },
    {
      "anonymous": false,
      "inputs": [
        {
          "indexed": true,
          "internalType": "address",
          "name": "from",
          "type": "address"
        },
        {
          "indexed": true,
          "internalType": "address",
          "name": "to",
          "type": "address"
        },
        {
          "indexed": true,
          "internalType": "uint256",
          "name": "tokenId",
          "type": "uint256"
        }
      ],
      "name": "Transfer",
      "type": "event"
    },
    {
      "inputs": [],
      "name": "MAX_MINT_LIMIT",
      "outputs": [
        {
          "internalType": "uint256",
          "name": "",
          "type": "uint256"
        }
      ],
      "stateMutability": "view",
      "type": "function"
    },
    {
      "inputs": [
        {
          "internalType": "address",
          "name": "",
          "type": "address"
        }
      ],
      "name": "_balanceOf",
      "outputs": [
        {
          "internalType": "uint256",
          "name": "",
          "type": "uint256"
        }
      ],
      "stateMutability": "view",
      "type": "function"
    },
    {
      "inputs": [
        {
          "internalType": "uint256",
          "name": "newItemId",
          "type": "uint256"
        }
      ],
      "name": "_tokenURI",
      "outputs": [
        {
          "internalType": "string",
          "name": "",
          "type": "string"
        }
      ],
      "stateMutability": "pure",
      "type": "function"
    },
    {
      "inputs": [
        {
          "internalType": "address",
          "name": "to",
          "type": "address"
        },
        {
          "internalType": "uint256",
          "name": "tokenId",
          "type": "uint256"
        }
      ],
      "name": "approve",
      "outputs": [],
      "stateMutability": "nonpayable",
      "type": "function"
    },
    {
      "inputs": [
        {
          "internalType": "address",
          "name": "owner",
          "type": "address"
        }
      ],
      "name": "balanceOf",
      "outputs": [
        {
          "internalType": "uint256",
          "name": "",
          "type": "uint256"
        }
      ],
      "stateMutability": "view",
      "type": "function"
    },
    {
      "inputs": [
        {
          "internalType": "uint256",
          "name": "newItemId",
          "type": "uint256"
        }
      ],
      "name": "combineWords",
      "outputs": [
        {
          "internalType": "string",
          "name": "",
          "type": "string"
        }
      ],
      "stateMutability": "pure",
      "type": "function"
    },
    {
      "inputs": [
        {
          "internalType": "uint256",
          "name": "tokenId",
          "type": "uint256"
        }
      ],
      "name": "getApproved",
      "outputs": [
        {
          "internalType": "address",
          "name": "",
          "type": "address"
        }
      ],
      "stateMutability": "view",
      "type": "function"
    },
    {
      "inputs": [],
      "name": "getTotalNFTMintedSoFar",
      "outputs": [
        {
          "internalType": "uint256",
          "name": "",
          "type": "uint256"
        }
      ],
      "stateMutability": "view",
      "type": "function"
    },
    {
      "inputs": [],
      "name": "getUserNFTMintedSoFar",
      "outputs": [
        {
          "internalType": "uint256",
          "name": "",
          "type": "uint256"
        }
      ],
      "stateMutability": "view",
      "type": "function"
    },
    {
      "inputs": [
        {
          "internalType": "address",
          "name": "owner",
          "type": "address"
        },
        {
          "internalType": "address",
          "name": "operator",
          "type": "address"
        }
      ],
      "name": "isApprovedForAll",
      "outputs": [
        {
          "internalType": "bool",
          "name": "",
          "type": "bool"
        }
      ],
      "stateMutability": "view",
      "type": "function"
    },
    {
      "inputs": [],
      "name": "makeRariNFT",
      "outputs": [],
      "stateMutability": "nonpayable",
      "type": "function"
    },
    {
      "inputs": [],
      "name": "name",
      "outputs": [
        {
          "internalType": "string",
          "name": "",
          "type": "string"
        }
      ],
      "stateMutability": "view",
      "type": "function"
    },
    {
      "inputs": [
        {
          "internalType": "uint256",
          "name": "tokenId",
          "type": "uint256"
        }
      ],
      "name": "ownerOf",
      "outputs": [
        {
          "internalType": "address",
          "name": "",
          "type": "address"
        }
      ],
      "stateMutability": "view",
      "type": "function"
    },
    {
      "inputs": [
        {
          "internalType": "uint256",
          "name": "tokenId",
          "type": "uint256"
        },
        {
          "internalType": "string[6]",
          "name": "colors",
          "type": "string[6]"
        }
      ],
      "name": "pickRandomColor",
      "outputs": [
        {
          "internalType": "string",
          "name": "",
          "type": "string"
        }
      ],
      "stateMutability": "pure",
      "type": "function"
    },
    {
      "inputs": [
        {
          "internalType": "uint256",
          "name": "tokenId",
          "type": "uint256"
        },
        {
          "internalType": "string[9]",
          "name": "firstWords",
          "type": "string[9]"
        }
      ],
      "name": "pickRandomFirstWord",
      "outputs": [
        {
          "internalType": "string",
          "name": "",
          "type": "string"
        }
      ],
      "stateMutability": "pure",
      "type": "function"
    },
    {
      "inputs": [
        {
          "internalType": "uint256",
          "name": "tokenId",
          "type": "uint256"
        },
        {
          "internalType": "string[8]",
          "name": "secondWords",
          "type": "string[8]"
        }
      ],
      "name": "pickRandomSecondWord",
      "outputs": [
        {
          "internalType": "string",
          "name": "",
          "type": "string"
        }
      ],
      "stateMutability": "pure",
      "type": "function"
    },
    {
      "inputs": [
        {
          "internalType": "uint256",
          "name": "tokeId",
          "type": "uint256"
        },
        {
          "internalType": "string[9]",
          "name": "thirdWords",
          "type": "string[9]"
        }
      ],
      "name": "pickRandomThirdWord",
      "outputs": [
        {
          "internalType": "string",
          "name": "",
          "type": "string"
        }
      ],
      "stateMutability": "pure",
      "type": "function"
    },
    {
      "inputs": [
        {
          "internalType": "address",
          "name": "from",
          "type": "address"
        },
        {
          "internalType": "address",
          "name": "to",
          "type": "address"
        },
        {
          "internalType": "uint256",
          "name": "tokenId",
          "type": "uint256"
        }
      ],
      "name": "safeTransferFrom",
      "outputs": [],
      "stateMutability": "nonpayable",
      "type": "function"
    },
    {
      "inputs": [
        {
          "internalType": "address",
          "name": "from",
          "type": "address"
        },
        {
          "internalType": "address",
          "name": "to",
          "type": "address"
        },
        {
          "internalType": "uint256",
          "name": "tokenId",
          "type": "uint256"
        },
        {
          "internalType": "bytes",
          "name": "_data",
          "type": "bytes"
        }
      ],
      "name": "safeTransferFrom",
      "outputs": [],
      "stateMutability": "nonpayable",
      "type": "function"
    },
    {
      "inputs": [
        {
          "internalType": "address",
          "name": "operator",
          "type": "address"
        },
        {
          "internalType": "bool",
          "name": "approved",
          "type": "bool"
        }
      ],
      "name": "setApprovalForAll",
      "outputs": [],
      "stateMutability": "nonpayable",
      "type": "function"
    },
    {
      "inputs": [
        {
          "internalType": "bytes4",
          "name": "interfaceId",
          "type": "bytes4"
        }
      ],
      "name": "supportsInterface",
      "outputs": [
        {
          "internalType": "bool",
          "name": "",
          "type": "bool"
        }
      ],
      "stateMutability": "view",
      "type": "function"
    },
    {
      "inputs": [],
      "name": "symbol",
      "outputs": [
        {
          "internalType": "string",
          "name": "",
          "type": "string"
        }
      ],
      "stateMutability": "view",
      "type": "function"
    },
    {
      "inputs": [
        {
          "internalType": "uint256",
          "name": "tokenId",
          "type": "uint256"
        }
      ],
      "name": "tokenURI",
      "outputs": [
        {
          "internalType": "string",
          "name": "",
          "type": "string"
        }
      ],
      "stateMutability": "view",
      "type": "function"
    },
    {
      "inputs": [
        {
          "internalType": "address",
          "name": "from",
          "type": "address"
        },
        {
          "internalType": "address",
          "name": "to",
          "type": "address"
        },
        {
          "internalType": "uint256",
          "name": "tokenId",
          "type": "uint256"
        }
      ],
      "name": "transferFrom",
      "outputs": [],
      "stateMutability": "nonpayable",
      "type": "function"
    }
  ],
  "bytecode": "0x608060405260326008553480156200001657600080fd5b506040518060400160405280600781526020017f526172694e4654000000000000000000000000000000000000000000000000008152506040518060400160405280600481526020017f524152490000000000000000000000000000000000000000000000000000000081525081600090805190602001906200009b929190620001d4565b508060019080519060200190620000b4929190620001d4565b505050620001026040518060400160405280600a81526020017f4669727374204e465421000000000000000000000000000000000000000000008152506200010860201b62001b6b1760201c565b620003b1565b620001a8816040516024016200011f9190620002c5565b6040516020818303038152906040527f41304fac000000000000000000000000000000000000000000000000000000007bffffffffffffffffffffffffffffffffffffffffffffffffffffffff19166020820180517bffffffffffffffffffffffffffffffffffffffffffffffffffffffff8381831617835250505050620001ab60201b60201c565b50565b60008151905060006a636f6e736f6c652e6c6f679050602083016000808483855afa5050505050565b828054620001e2906200033b565b90600052602060002090601f01602090048101928262000206576000855562000252565b82601f106200022157805160ff191683800117855562000252565b8280016001018555821562000252579182015b828111156200025157825182559160200191906001019062000234565b5b50905062000261919062000265565b5090565b5b808211156200028057600081600090555060010162000266565b5090565b60006200029182620002e9565b6200029d8185620002f4565b9350620002af81856020860162000305565b620002ba81620003a0565b840191505092915050565b60006020820190508181036000830152620002e1818462000284565b905092915050565b600081519050919050565b600082825260208201905092915050565b60005b838110156200032557808201518184015260208101905062000308565b8381111562000335576000848401525b50505050565b600060028204905060018216806200035457607f821691505b602082108114156200036b576200036a62000371565b5b50919050565b7f4e487b7100000000000000000000000000000000000000000000000000000000600052602260045260246000fd5b6000601f19601f8301169050919050565b61486c80620003c16000396000f3fe608060405234801561001057600080fd5b50600436106101585760003560e01c80637f59230f116100c3578063c42c542a1161007c578063c42c542a14610411578063c87b56dd14610441578063cca3e83214610471578063d554ae5a146104a1578063e985e9c5146104bf578063f0548cdb146104ef57610158565b80637f59230f1461033d5780638d17e7121461035b57806395d89b411461038b578063a22cb465146103a9578063b88d4fde146103c5578063c065582a146103e157610158565b8063268147ac11610115578063268147ac1461024357806342842e0e1461027357806359f4a51e1461028f5780636352211e146102ad57806370a08231146102dd5780637be9dc681461030d57610158565b806301ffc9a71461015d578063048834671461018d57806306fdde03146101bd578063081812fc146101db578063095ea7b31461020b57806323b872dd14610227575b600080fd5b61017760048036038101906101729190613052565b6104f9565b604051610184919061385b565b60405180910390f35b6101a760048036038101906101a29190613121565b6105db565b6040516101b49190613876565b60405180910390f35b6101c5610667565b6040516101d29190613876565b60405180910390f35b6101f560048036038101906101f091906130a4565b6106f9565b60405161020291906137cb565b60405180910390f35b61022560048036038101906102209190613016565b61077e565b005b610241600480360381019061023c9190612f10565b610896565b005b61025d600480360381019061025891906130a4565b6108f6565b60405161026a9190613876565b60405180910390f35b61028d60048036038101906102889190612f10565b610f81565b005b610297610fa1565b6040516102a49190613af6565b60405180910390f35b6102c760048036038101906102c291906130a4565b610fb2565b6040516102d491906137cb565b60405180910390f35b6102f760048036038101906102f29190612eab565b611064565b6040516103049190613af6565b60405180910390f35b61032760048036038101906103229190613175565b61111c565b6040516103349190613876565b60405180910390f35b6103456111a8565b6040516103529190613af6565b60405180910390f35b610375600480360381019061037091906130a4565b6111ae565b6040516103829190613876565b60405180910390f35b610393611409565b6040516103a09190613876565b60405180910390f35b6103c360048036038101906103be9190612fda565b61149b565b005b6103df60048036038101906103da9190612f5f565b61161c565b005b6103fb60048036038101906103f691906130cd565b61167e565b6040516104089190613876565b60405180910390f35b61042b60048036038101906104269190613175565b61170a565b6040516104389190613876565b60405180910390f35b61045b600480360381019061045691906130a4565b611796565b6040516104689190613876565b60405180910390f35b61048b60048036038101906104869190612eab565b6118e8565b6040516104989190613af6565b60405180910390f35b6104a9611900565b6040516104b69190613af6565b60405180910390f35b6104d960048036038101906104d49190612ed4565b611947565b6040516104e6919061385b565b60405180910390f35b6104f76119db565b005b60007f80ac58cd000000000000000000000000000000000000000000000000000000007bffffffffffffffffffffffffffffffffffffffffffffffffffffffff1916827bffffffffffffffffffffffffffffffffffffffffffffffffffffffff191614806105c457507f5b5e139f000000000000000000000000000000000000000000000000000000007bffffffffffffffffffffffffffffffffffffffffffffffffffffffff1916827bffffffffffffffffffffffffffffffffffffffffffffffffffffffff1916145b806105d457506105d382611c04565b5b9050919050565b6060600061060f6105eb85611c6e565b6040516020016105fb91906136fe565b604051602081830303815290604052611e1b565b905060088161061e9190613ec4565b9050828160088110610659577f4e487b7100000000000000000000000000000000000000000000000000000000600052603260045260246000fd5b602002015191505092915050565b60606000805461067690613e18565b80601f01602080910402602001604051908101604052809291908181526020018280546106a290613e18565b80156106ef5780601f106106c4576101008083540402835291602001916106ef565b820191906000526020600020905b8154815290600101906020018083116106d257829003601f168201915b5050505050905090565b600061070482611e4e565b610743576040517f08c379a000000000000000000000000000000000000000000000000000000000815260040161073a90613a36565b60405180910390fd5b6004600083815260200190815260200160002060009054906101000a900473ffffffffffffffffffffffffffffffffffffffff169050919050565b600061078982610fb2565b90508073ffffffffffffffffffffffffffffffffffffffff168373ffffffffffffffffffffffffffffffffffffffff1614156107fa576040517f08c379a00000000000000000000000000000000000000000000000000000000081526004016107f190613a96565b60405180910390fd5b8073ffffffffffffffffffffffffffffffffffffffff16610819611eba565b73ffffffffffffffffffffffffffffffffffffffff161480610848575061084781610842611eba565b611947565b5b610887576040517f08c379a000000000000000000000000000000000000000000000000000000000815260040161087e90613976565b60405180910390fd5b6108918383611ec2565b505050565b6108a76108a1611eba565b82611f7b565b6108e6576040517f08c379a00000000000000000000000000000000000000000000000000000000081526004016108dd90613ab6565b60405180910390fd5b6108f1838383612059565b505050565b606060006040518061012001604052806040518060400160405280600781526020017f53616974616d610000000000000000000000000000000000000000000000000081525081526020016040518060400160405280600481526020017f476f6b750000000000000000000000000000000000000000000000000000000081525081526020016040518060400160405280600681526020017f566567657461000000000000000000000000000000000000000000000000000081525081526020016040518060400160405280600581526020017f4c7566667900000000000000000000000000000000000000000000000000000081525081526020016040518060400160405280600681526020017f49636869676f000000000000000000000000000000000000000000000000000081525081526020016040518060400160405280600681526020017f416f6d696e65000000000000000000000000000000000000000000000000000081525081526020016040518060400160405280600481526020017f4b6972610000000000000000000000000000000000000000000000000000000081525081526020016040518060400160405280600681526020017f4e617275746f000000000000000000000000000000000000000000000000000081525081526020016040518060400160405280600481526020017f44656b7500000000000000000000000000000000000000000000000000000000815250815250905060006040518061010001604052806040518060400160405280600581526020017f536c61707300000000000000000000000000000000000000000000000000000081525081526020016040518060400160405280600781526020017f50756e636865730000000000000000000000000000000000000000000000000081525081526020016040518060400160405280600581526020017f4b69636b7300000000000000000000000000000000000000000000000000000081525081526020016040518060400160405280600581526020017f4b696c6c7300000000000000000000000000000000000000000000000000000081525081526020016040518060400160405280600581526020017f4c6f76657300000000000000000000000000000000000000000000000000000081525081526020016040518060400160405280600581526020017f486174657300000000000000000000000000000000000000000000000000000081525081526020016040518060400160405280600481526020017f456e76790000000000000000000000000000000000000000000000000000000081525081526020016040518060400160405280600681526020017f5374617265730000000000000000000000000000000000000000000000000000815250815250905060006040518061012001604052806040518060400160405280600481526020017f4c696f6e0000000000000000000000000000000000000000000000000000000081525081526020016040518060400160405280600581526020017f4879656e6100000000000000000000000000000000000000000000000000000081525081526020016040518060400160405280600581526020017f546967657200000000000000000000000000000000000000000000000000000081525081526020016040518060400160405280600581526020017f536e616b6500000000000000000000000000000000000000000000000000000081525081526020016040518060400160405280600881526020017f456c657068616e7400000000000000000000000000000000000000000000000081525081526020016040518060400160405280600781526020017f436865657461680000000000000000000000000000000000000000000000000081525081526020016040518060400160405280600681526020017f4d6f6e6b6579000000000000000000000000000000000000000000000000000081525081526020016040518060400160405280600581526020017f4368696d7000000000000000000000000000000000000000000000000000000081525081526020016040518060400160405280600581526020017f4561676c6500000000000000000000000000000000000000000000000000000081525081525090506000610f2c868561111c565b90506000610f3a87856105db565b90506000610f48888561170a565b90506000838383604051602001610f6193929190613662565b604051602081830303815290604052905080975050505050505050919050565b610f9c8383836040518060200160405280600081525061161c565b505050565b6000610fad60076122b5565b905090565b6000806002600084815260200190815260200160002060009054906101000a900473ffffffffffffffffffffffffffffffffffffffff169050600073ffffffffffffffffffffffffffffffffffffffff168173ffffffffffffffffffffffffffffffffffffffff16141561105b576040517f08c379a0000000000000000000000000000000000000000000000000000000008152600401611052906139b6565b60405180910390fd5b80915050919050565b60008073ffffffffffffffffffffffffffffffffffffffff168273ffffffffffffffffffffffffffffffffffffffff1614156110d5576040517f08c379a00000000000000000000000000000000000000000000000000000000081526004016110cc90613996565b60405180910390fd5b600360008373ffffffffffffffffffffffffffffffffffffffff1673ffffffffffffffffffffffffffffffffffffffff168152602001908152602001600020549050919050565b6060600061115061112c85611c6e565b60405160200161113c9190613765565b604051602081830303815290604052611e1b565b905060098161115f9190613ec4565b905082816009811061119a577f4e487b7100000000000000000000000000000000000000000000000000000000600052603260045260246000fd5b602002015191505092915050565b60085481565b6060600060405180610100016040528060d381526020016146ce60d39139905060006040518060800160405280605681526020016147e160569139905060006040518060c001604052806040518060400160405280600381526020017f726564000000000000000000000000000000000000000000000000000000000081525081526020016040518060400160405280600781526020017f233038433241380000000000000000000000000000000000000000000000000081525081526020016040518060400160405280600581526020017f626c61636b00000000000000000000000000000000000000000000000000000081525081526020016040518060400160405280600681526020017f79656c6c6f77000000000000000000000000000000000000000000000000000081525081526020016040518060400160405280600481526020017f626c75650000000000000000000000000000000000000000000000000000000081525081526020016040518060400160405280600581526020017f677265656e00000000000000000000000000000000000000000000000000000081525081525090506000611365866108f6565b90506000611373878461167e565b905060008582868560405160200161138e9493929190613693565b604051602081830303815290604052905060006113d3846113ae846122c3565b6040516020016113bf929190613720565b6040516020818303038152906040526122c3565b90506000816040516020016113e89190613787565b60405160208183030381529060405290508098505050505050505050919050565b60606001805461141890613e18565b80601f016020809104026020016040519081016040528092919081815260200182805461144490613e18565b80156114915780601f1061146657610100808354040283529160200191611491565b820191906000526020600020905b81548152906001019060200180831161147457829003601f168201915b5050505050905090565b6114a3611eba565b73ffffffffffffffffffffffffffffffffffffffff168273ffffffffffffffffffffffffffffffffffffffff161415611511576040517f08c379a000000000000000000000000000000000000000000000000000000000815260040161150890613936565b60405180910390fd5b806005600061151e611eba565b73ffffffffffffffffffffffffffffffffffffffff1673ffffffffffffffffffffffffffffffffffffffff16815260200190815260200160002060008473ffffffffffffffffffffffffffffffffffffffff1673ffffffffffffffffffffffffffffffffffffffff16815260200190815260200160002060006101000a81548160ff0219169083151502179055508173ffffffffffffffffffffffffffffffffffffffff166115cb611eba565b73ffffffffffffffffffffffffffffffffffffffff167f17307eab39ab6107e8899845ad3d59bd9653f200f220920489ca2b5937696c3183604051611610919061385b565b60405180910390a35050565b61162d611627611eba565b83611f7b565b61166c576040517f08c379a000000000000000000000000000000000000000000000000000000000815260040161166390613ab6565b60405180910390fd5b61167884848484612481565b50505050565b606060006116b261168e85611c6e565b60405160200161169e91906137a9565b604051602081830303815290604052611e1b565b90506006816116c19190613ec4565b90508281600681106116fc577f4e487b7100000000000000000000000000000000000000000000000000000000600052603260045260246000fd5b602002015191505092915050565b6060600061173e61171a85611c6e565b60405160200161172a91906136dc565b604051602081830303815290604052611e1b565b905060098161174d9190613ec4565b9050828160098110611788577f4e487b7100000000000000000000000000000000000000000000000000000000600052603260045260246000fd5b602002015191505092915050565b60606117a182611e4e565b6117e0576040517f08c379a00000000000000000000000000000000000000000000000000000000081526004016117d790613a16565b60405180910390fd5b600060066000848152602001908152602001600020805461180090613e18565b80601f016020809104026020016040519081016040528092919081815260200182805461182c90613e18565b80156118795780601f1061184e57610100808354040283529160200191611879565b820191906000526020600020905b81548152906001019060200180831161185c57829003601f168201915b50505050509050600061188a6124dd565b90506000815114156118a05781925050506118e3565b6000825111156118d55780826040516020016118bd92919061363e565b604051602081830303815290604052925050506118e3565b6118de846124f4565b925050505b919050565b600a6020528060005260406000206000915090505481565b6000600a60003373ffffffffffffffffffffffffffffffffffffffff1673ffffffffffffffffffffffffffffffffffffffff16815260200190815260200160002054905090565b6000600560008473ffffffffffffffffffffffffffffffffffffffff1673ffffffffffffffffffffffffffffffffffffffff16815260200190815260200160002060008373ffffffffffffffffffffffffffffffffffffffff1673ffffffffffffffffffffffffffffffffffffffff16815260200190815260200160002060009054906101000a900460ff16905092915050565b60006119e760076122b5565b9050806008541015611a2e576040517f08c379a0000000000000000000000000000000000000000000000000000000008152600401611a2590613ad6565b60405180910390fd5b6000611a39826111ae565b9050611a4481611b6b565b611a4e338361259b565b611a5882826125b9565b611a62600761262d565b336009600084815260200190815260200160002060006101000a81548173ffffffffffffffffffffffffffffffffffffffff021916908373ffffffffffffffffffffffffffffffffffffffff1602179055506001600a60003373ffffffffffffffffffffffffffffffffffffffff1673ffffffffffffffffffffffffffffffffffffffff1681526020019081526020016000206000828254611b049190613c4d565b925050819055507f115800588b472877efdfb4e0d7ca273500ddb61c5f55e362db932032711a9d313383604051611b3c929190613832565b60405180910390a1611b676040518060600160405280602581526020016146a9602591398333612643565b5050565b611c0181604051602401611b7f9190613876565b6040516020818303038152906040527f41304fac000000000000000000000000000000000000000000000000000000007bffffffffffffffffffffffffffffffffffffffffffffffffffffffff19166020820180517bffffffffffffffffffffffffffffffffffffffffffffffffffffffff83818316178352505050506126e2565b50565b60007f01ffc9a7000000000000000000000000000000000000000000000000000000007bffffffffffffffffffffffffffffffffffffffffffffffffffffffff1916827bffffffffffffffffffffffffffffffffffffffffffffffffffffffff1916149050919050565b60606000821415611cb6576040518060400160405280600181526020017f30000000000000000000000000000000000000000000000000000000000000008152509050611e16565b600082905060005b60008214611ce8578080611cd190613e7b565b915050600a82611ce19190613ca3565b9150611cbe565b60008167ffffffffffffffff811115611d2a577f4e487b7100000000000000000000000000000000000000000000000000000000600052604160045260246000fd5b6040519080825280601f01601f191660200182016040528015611d5c5781602001600182028036833780820191505090505b5090505b60008514611e0f57600182611d759190613d2e565b9150600a85611d849190613ec4565b6030611d909190613c4d565b60f81b818381518110611dcc577f4e487b7100000000000000000000000000000000000000000000000000000000600052603260045260246000fd5b60200101907effffffffffffffffffffffffffffffffffffffffffffffffffffffffffffff1916908160001a905350600a85611e089190613ca3565b9450611d60565b8093505050505b919050565b600081604051602001611e2e9190613627565b6040516020818303038152906040528051906020012060001c9050919050565b60008073ffffffffffffffffffffffffffffffffffffffff166002600084815260200190815260200160002060009054906101000a900473ffffffffffffffffffffffffffffffffffffffff1673ffffffffffffffffffffffffffffffffffffffff1614159050919050565b600033905090565b816004600083815260200190815260200160002060006101000a81548173ffffffffffffffffffffffffffffffffffffffff021916908373ffffffffffffffffffffffffffffffffffffffff160217905550808273ffffffffffffffffffffffffffffffffffffffff16611f3583610fb2565b73ffffffffffffffffffffffffffffffffffffffff167f8c5be1e5ebec7d5bd14f71427d1e84f3dd0314c0f7b2291e5b200ac8c7c3b92560405160405180910390a45050565b6000611f8682611e4e565b611fc5576040517f08c379a0000000000000000000000000000000000000000000000000000000008152600401611fbc90613956565b60405180910390fd5b6000611fd083610fb2565b90508073ffffffffffffffffffffffffffffffffffffffff168473ffffffffffffffffffffffffffffffffffffffff16148061203f57508373ffffffffffffffffffffffffffffffffffffffff16612027846106f9565b73ffffffffffffffffffffffffffffffffffffffff16145b80612050575061204f8185611947565b5b91505092915050565b8273ffffffffffffffffffffffffffffffffffffffff1661207982610fb2565b73ffffffffffffffffffffffffffffffffffffffff16146120cf576040517f08c379a00000000000000000000000000000000000000000000000000000000081526004016120c690613a56565b60405180910390fd5b600073ffffffffffffffffffffffffffffffffffffffff168273ffffffffffffffffffffffffffffffffffffffff16141561213f576040517f08c379a000000000000000000000000000000000000000000000000000000000815260040161213690613916565b60405180910390fd5b61214a83838361270b565b612155600082611ec2565b6001600360008573ffffffffffffffffffffffffffffffffffffffff1673ffffffffffffffffffffffffffffffffffffffff16815260200190815260200160002060008282546121a59190613d2e565b925050819055506001600360008473ffffffffffffffffffffffffffffffffffffffff1673ffffffffffffffffffffffffffffffffffffffff16815260200190815260200160002060008282546121fc9190613c4d565b92505081905550816002600083815260200190815260200160002060006101000a81548173ffffffffffffffffffffffffffffffffffffffff021916908373ffffffffffffffffffffffffffffffffffffffff160217905550808273ffffffffffffffffffffffffffffffffffffffff168473ffffffffffffffffffffffffffffffffffffffff167fddf252ad1be2c89b69c2b068fc378daa952ba7f163c4a11628f55a4df523b3ef60405160405180910390a4505050565b600081600001549050919050565b606060008251905060008114156122ec576040518060200160405280600081525091505061247c565b600060036002836122fd9190613c4d565b6123079190613ca3565b60046123139190613cd4565b905060006020826123249190613c4d565b67ffffffffffffffff811115612363577f4e487b7100000000000000000000000000000000000000000000000000000000600052604160045260246000fd5b6040519080825280601f01601f1916602001820160405280156123955781602001600182028036833780820191505090505b50905060006040518060600160405280604081526020016147a1604091399050600181016020830160005b868110156124395760038101905062ffffff818a015116603f8160121c168401518060081b905060ff603f83600c1c1686015116810190508060081b905060ff603f8360061c1686015116810190508060081b905060ff603f831686015116810190508060e01b905080845260048401935050506123c0565b50600386066001811461245357600281146124635761246e565b613d3d60f01b600283035261246e565b603d60f81b60018303525b508484525050819450505050505b919050565b61248c848484612059565b61249884848484612710565b6124d7576040517f08c379a00000000000000000000000000000000000000000000000000000000081526004016124ce906138d6565b60405180910390fd5b50505050565b606060405180602001604052806000815250905090565b60606124ff82611e4e565b61253e576040517f08c379a000000000000000000000000000000000000000000000000000000000815260040161253590613a76565b60405180910390fd5b60006125486124dd565b905060008151116125685760405180602001604052806000815250612593565b8061257284611c6e565b60405160200161258392919061363e565b6040516020818303038152906040525b915050919050565b6125b58282604051806020016040528060008152506128a7565b5050565b6125c282611e4e565b612601576040517f08c379a00000000000000000000000000000000000000000000000000000000081526004016125f8906139d6565b60405180910390fd5b80600660008481526020019081526020016000209080519060200190612628929190612ae3565b505050565b6001816000016000828254019250508190555050565b6126dd83838360405160240161265b93929190613898565b6040516020818303038152906040527fe3849f79000000000000000000000000000000000000000000000000000000007bffffffffffffffffffffffffffffffffffffffffffffffffffffffff19166020820180517bffffffffffffffffffffffffffffffffffffffffffffffffffffffff83818316178352505050506126e2565b505050565b60008151905060006a636f6e736f6c652e6c6f679050602083016000808483855afa5050505050565b505050565b60006127318473ffffffffffffffffffffffffffffffffffffffff16612902565b1561289a578373ffffffffffffffffffffffffffffffffffffffff1663150b7a0261275a611eba565b8786866040518563ffffffff1660e01b815260040161277c94939291906137e6565b602060405180830381600087803b15801561279657600080fd5b505af19250505080156127c757506040513d601f19601f820116820180604052508101906127c4919061307b565b60015b61284a573d80600081146127f7576040519150601f19603f3d011682016040523d82523d6000602084013e6127fc565b606091505b50600081511415612842576040517f08c379a0000000000000000000000000000000000000000000000000000000008152600401612839906138d6565b60405180910390fd5b805181602001fd5b63150b7a0260e01b7bffffffffffffffffffffffffffffffffffffffffffffffffffffffff1916817bffffffffffffffffffffffffffffffffffffffffffffffffffffffff19161491505061289f565b600190505b949350505050565b6128b18383612915565b6128be6000848484612710565b6128fd576040517f08c379a00000000000000000000000000000000000000000000000000000000081526004016128f4906138d6565b60405180910390fd5b505050565b600080823b905060008111915050919050565b600073ffffffffffffffffffffffffffffffffffffffff168273ffffffffffffffffffffffffffffffffffffffff161415612985576040517f08c379a000000000000000000000000000000000000000000000000000000000815260040161297c906139f6565b60405180910390fd5b61298e81611e4e565b156129ce576040517f08c379a00000000000000000000000000000000000000000000000000000000081526004016129c5906138f6565b60405180910390fd5b6129da6000838361270b565b6001600360008473ffffffffffffffffffffffffffffffffffffffff1673ffffffffffffffffffffffffffffffffffffffff1681526020019081526020016000206000828254612a2a9190613c4d565b92505081905550816002600083815260200190815260200160002060006101000a81548173ffffffffffffffffffffffffffffffffffffffff021916908373ffffffffffffffffffffffffffffffffffffffff160217905550808273ffffffffffffffffffffffffffffffffffffffff16600073ffffffffffffffffffffffffffffffffffffffff167fddf252ad1be2c89b69c2b068fc378daa952ba7f163c4a11628f55a4df523b3ef60405160405180910390a45050565b828054612aef90613e18565b90600052602060002090601f016020900481019282612b115760008555612b58565b82601f10612b2a57805160ff1916838001178555612b58565b82800160010185558215612b58579182015b82811115612b57578251825591602001919060010190612b3c565b5b509050612b659190612b69565b5090565b5b80821115612b82576000816000905550600101612b6a565b5090565b6000612b99612b9484613b36565b613b11565b90508082856020860282011115612baf57600080fd5b60005b85811015612bf957813567ffffffffffffffff811115612bd157600080fd5b808601612bde8982612e6c565b85526020850194506020840193505050600181019050612bb2565b5050509392505050565b6000612c16612c1184613b5c565b613b11565b90508082856020860282011115612c2c57600080fd5b60005b85811015612c7657813567ffffffffffffffff811115612c4e57600080fd5b808601612c5b8982612e6c565b85526020850194506020840193505050600181019050612c2f565b5050509392505050565b6000612c93612c8e84613b82565b613b11565b90508082856020860282011115612ca957600080fd5b60005b85811015612cf357813567ffffffffffffffff811115612ccb57600080fd5b808601612cd88982612e6c565b85526020850194506020840193505050600181019050612cac565b5050509392505050565b6000612d10612d0b84613ba8565b613b11565b905082815260208101848484011115612d2857600080fd5b612d33848285613dd6565b509392505050565b6000612d4e612d4984613bd9565b613b11565b905082815260208101848484011115612d6657600080fd5b612d71848285613dd6565b509392505050565b600081359050612d888161464c565b92915050565b600082601f830112612d9f57600080fd5b6006612dac848285612b86565b91505092915050565b600082601f830112612dc657600080fd5b6008612dd3848285612c03565b91505092915050565b600082601f830112612ded57600080fd5b6009612dfa848285612c80565b91505092915050565b600081359050612e1281614663565b92915050565b600081359050612e278161467a565b92915050565b600081519050612e3c8161467a565b92915050565b600082601f830112612e5357600080fd5b8135612e63848260208601612cfd565b91505092915050565b600082601f830112612e7d57600080fd5b8135612e8d848260208601612d3b565b91505092915050565b600081359050612ea581614691565b92915050565b600060208284031215612ebd57600080fd5b6000612ecb84828501612d79565b91505092915050565b60008060408385031215612ee757600080fd5b6000612ef585828601612d79565b9250506020612f0685828601612d79565b9150509250929050565b600080600060608486031215612f2557600080fd5b6000612f3386828701612d79565b9350506020612f4486828701612d79565b9250506040612f5586828701612e96565b9150509250925092565b60008060008060808587031215612f7557600080fd5b6000612f8387828801612d79565b9450506020612f9487828801612d79565b9350506040612fa587828801612e96565b925050606085013567ffffffffffffffff811115612fc257600080fd5b612fce87828801612e42565b91505092959194509250565b60008060408385031215612fed57600080fd5b6000612ffb85828601612d79565b925050602061300c85828601612e03565b9150509250929050565b6000806040838503121561302957600080fd5b600061303785828601612d79565b925050602061304885828601612e96565b9150509250929050565b60006020828403121561306457600080fd5b600061307284828501612e18565b91505092915050565b60006020828403121561308d57600080fd5b600061309b84828501612e2d565b91505092915050565b6000602082840312156130b657600080fd5b60006130c484828501612e96565b91505092915050565b600080604083850312156130e057600080fd5b60006130ee85828601612e96565b925050602083013567ffffffffffffffff81111561310b57600080fd5b61311785828601612d8e565b9150509250929050565b6000806040838503121561313457600080fd5b600061314285828601612e96565b925050602083013567ffffffffffffffff81111561315f57600080fd5b61316b85828601612db5565b9150509250929050565b6000806040838503121561318857600080fd5b600061319685828601612e96565b925050602083013567ffffffffffffffff8111156131b357600080fd5b6131bf85828601612ddc565b9150509250929050565b6131d281613d62565b82525050565b6131e181613d74565b82525050565b60006131f282613c0a565b6131fc8185613c20565b935061320c818560208601613de5565b61321581613fb1565b840191505092915050565b600061322b82613c15565b6132358185613c31565b9350613245818560208601613de5565b61324e81613fb1565b840191505092915050565b600061326482613c15565b61326e8185613c42565b935061327e818560208601613de5565b80840191505092915050565b6000613297603283613c31565b91506132a282613fc2565b604082019050919050565b60006132ba601c83613c31565b91506132c582614011565b602082019050919050565b60006132dd600a83613c42565b91506132e88261403a565b600a82019050919050565b6000613300602483613c31565b915061330b82614063565b604082019050919050565b6000613323601983613c31565b915061332e826140b2565b602082019050919050565b6000613346600b83613c42565b9150613351826140db565b600b82019050919050565b6000613369602c83613c31565b915061337482614104565b604082019050919050565b600061338c600d83613c42565b915061339782614153565b600d82019050919050565b60006133af603883613c31565b91506133ba8261417c565b604082019050919050565b60006133d2602a83613c31565b91506133dd826141cb565b604082019050919050565b60006133f5602983613c31565b91506134008261421a565b604082019050919050565b6000613418602e83613c31565b915061342382614269565b604082019050919050565b600061343b600283613c42565b9150613446826142b8565b600282019050919050565b600061345e602083613c31565b9150613469826142e1565b602082019050919050565b6000613481603183613c31565b915061348c8261430a565b604082019050919050565b60006134a4602c83613c31565b91506134af82614359565b604082019050919050565b60006134c7602983613c31565b91506134d2826143a8565b604082019050919050565b60006134ea602f83613c31565b91506134f5826143f7565b604082019050919050565b600061350d600a83613c42565b915061351882614446565b600a82019050919050565b6000613530602183613c31565b915061353b8261446f565b604082019050919050565b6000613553600a83613c42565b915061355e826144be565b600a82019050919050565b6000613576603183613c31565b9150613581826144e7565b604082019050919050565b6000613599601e83613c42565b91506135a482614536565b601e82019050919050565b60006135bc600583613c42565b91506135c78261455f565b600582019050919050565b60006135df606b83613c42565b91506135ea82614588565b606b82019050919050565b6000613602601a83613c31565b915061360d82614623565b602082019050919050565b61362181613dcc565b82525050565b60006136338284613259565b915081905092915050565b600061364a8285613259565b91506136568284613259565b91508190509392505050565b600061366e8286613259565b915061367a8285613259565b91506136868284613259565b9150819050949350505050565b600061369f8287613259565b91506136ab8286613259565b91506136b78285613259565b91506136c38284613259565b91506136ce8261337f565b915081905095945050505050565b60006136e7826132d0565b91506136f38284613259565b915081905092915050565b600061370982613339565b91506137158284613259565b915081905092915050565b600061372b82613500565b91506137378285613259565b9150613742826135d2565b915061374e8284613259565b91506137598261342e565b91508190509392505050565b600061377082613546565b915061377c8284613259565b915081905092915050565b60006137928261358c565b915061379e8284613259565b915081905092915050565b60006137b4826135af565b91506137c08284613259565b915081905092915050565b60006020820190506137e060008301846131c9565b92915050565b60006080820190506137fb60008301876131c9565b61380860208301866131c9565b6138156040830185613618565b818103606083015261382781846131e7565b905095945050505050565b600060408201905061384760008301856131c9565b6138546020830184613618565b9392505050565b600060208201905061387060008301846131d8565b92915050565b600060208201905081810360008301526138908184613220565b905092915050565b600060608201905081810360008301526138b28186613220565b90506138c16020830185613618565b6138ce60408301846131c9565b949350505050565b600060208201905081810360008301526138ef8161328a565b9050919050565b6000602082019050818103600083015261390f816132ad565b9050919050565b6000602082019050818103600083015261392f816132f3565b9050919050565b6000602082019050818103600083015261394f81613316565b9050919050565b6000602082019050818103600083015261396f8161335c565b9050919050565b6000602082019050818103600083015261398f816133a2565b9050919050565b600060208201905081810360008301526139af816133c5565b9050919050565b600060208201905081810360008301526139cf816133e8565b9050919050565b600060208201905081810360008301526139ef8161340b565b9050919050565b60006020820190508181036000830152613a0f81613451565b9050919050565b60006020820190508181036000830152613a2f81613474565b9050919050565b60006020820190508181036000830152613a4f81613497565b9050919050565b60006020820190508181036000830152613a6f816134ba565b9050919050565b60006020820190508181036000830152613a8f816134dd565b9050919050565b60006020820190508181036000830152613aaf81613523565b9050919050565b60006020820190508181036000830152613acf81613569565b9050919050565b60006020820190508181036000830152613aef816135f5565b9050919050565b6000602082019050613b0b6000830184613618565b92915050565b6000613b1b613b2c565b9050613b278282613e4a565b919050565b6000604051905090565b600067ffffffffffffffff821115613b5157613b50613f82565b5b602082029050919050565b600067ffffffffffffffff821115613b7757613b76613f82565b5b602082029050919050565b600067ffffffffffffffff821115613b9d57613b9c613f82565b5b602082029050919050565b600067ffffffffffffffff821115613bc357613bc2613f82565b5b613bcc82613fb1565b9050602081019050919050565b600067ffffffffffffffff821115613bf457613bf3613f82565b5b613bfd82613fb1565b9050602081019050919050565b600081519050919050565b600081519050919050565b600082825260208201905092915050565b600082825260208201905092915050565b600081905092915050565b6000613c5882613dcc565b9150613c6383613dcc565b9250827fffffffffffffffffffffffffffffffffffffffffffffffffffffffffffffffff03821115613c9857613c97613ef5565b5b828201905092915050565b6000613cae82613dcc565b9150613cb983613dcc565b925082613cc957613cc8613f24565b5b828204905092915050565b6000613cdf82613dcc565b9150613cea83613dcc565b9250817fffffffffffffffffffffffffffffffffffffffffffffffffffffffffffffffff0483118215151615613d2357613d22613ef5565b5b828202905092915050565b6000613d3982613dcc565b9150613d4483613dcc565b925082821015613d5757613d56613ef5565b5b828203905092915050565b6000613d6d82613dac565b9050919050565b60008115159050919050565b60007fffffffff0000000000000000000000000000000000000000000000000000000082169050919050565b600073ffffffffffffffffffffffffffffffffffffffff82169050919050565b6000819050919050565b82818337600083830152505050565b60005b83811015613e03578082015181840152602081019050613de8565b83811115613e12576000848401525b50505050565b60006002820490506001821680613e3057607f821691505b60208210811415613e4457613e43613f53565b5b50919050565b613e5382613fb1565b810181811067ffffffffffffffff82111715613e7257613e71613f82565b5b80604052505050565b6000613e8682613dcc565b91507fffffffffffffffffffffffffffffffffffffffffffffffffffffffffffffffff821415613eb957613eb8613ef5565b5b600182019050919050565b6000613ecf82613dcc565b9150613eda83613dcc565b925082613eea57613ee9613f24565b5b828206905092915050565b7f4e487b7100000000000000000000000000000000000000000000000000000000600052601160045260246000fd5b7f4e487b7100000000000000000000000000000000000000000000000000000000600052601260045260246000fd5b7f4e487b7100000000000000000000000000000000000000000000000000000000600052602260045260246000fd5b7f4e487b7100000000000000000000000000000000000000000000000000000000600052604160045260246000fd5b6000601f19601f8301169050919050565b7f4552433732313a207472616e7366657220746f206e6f6e20455243373231526560008201527f63656976657220696d706c656d656e7465720000000000000000000000000000602082015250565b7f4552433732313a20746f6b656e20616c7265616479206d696e74656400000000600082015250565b7f54484952445f574f524400000000000000000000000000000000000000000000600082015250565b7f4552433732313a207472616e7366657220746f20746865207a65726f2061646460008201527f7265737300000000000000000000000000000000000000000000000000000000602082015250565b7f4552433732313a20617070726f766520746f2063616c6c657200000000000000600082015250565b7f5345434f4e445f574f5244000000000000000000000000000000000000000000600082015250565b7f4552433732313a206f70657261746f7220717565727920666f72206e6f6e657860008201527f697374656e7420746f6b656e0000000000000000000000000000000000000000602082015250565b7f3c2f746578743e3c2f7376673e00000000000000000000000000000000000000600082015250565b7f4552433732313a20617070726f76652063616c6c6572206973206e6f74206f7760008201527f6e6572206e6f7220617070726f76656420666f7220616c6c0000000000000000602082015250565b7f4552433732313a2062616c616e636520717565727920666f7220746865207a6560008201527f726f206164647265737300000000000000000000000000000000000000000000602082015250565b7f4552433732313a206f776e657220717565727920666f72206e6f6e657869737460008201527f656e7420746f6b656e0000000000000000000000000000000000000000000000602082015250565b7f45524337323155524953746f726167653a2055524920736574206f66206e6f6e60008201527f6578697374656e7420746f6b656e000000000000000000000000000000000000602082015250565b7f227d000000000000000000000000000000000000000000000000000000000000600082015250565b7f4552433732313a206d696e7420746f20746865207a65726f2061646472657373600082015250565b7f45524337323155524953746f726167653a2055524920717565727920666f722060008201527f6e6f6e6578697374656e7420746f6b656e000000000000000000000000000000602082015250565b7f4552433732313a20617070726f76656420717565727920666f72206e6f6e657860008201527f697374656e7420746f6b656e0000000000000000000000000000000000000000602082015250565b7f4552433732313a207472616e73666572206f6620746f6b656e2074686174206960008201527f73206e6f74206f776e0000000000000000000000000000000000000000000000602082015250565b7f4552433732314d657461646174613a2055524920717565727920666f72206e6f60008201527f6e6578697374656e7420746f6b656e0000000000000000000000000000000000602082015250565b7f7b226e616d65223a202200000000000000000000000000000000000000000000600082015250565b7f4552433732313a20617070726f76616c20746f2063757272656e74206f776e6560008201527f7200000000000000000000000000000000000000000000000000000000000000602082015250565b7f46495253545f574f524400000000000000000000000000000000000000000000600082015250565b7f4552433732313a207472616e736665722063616c6c6572206973206e6f74206f60008201527f776e6572206e6f7220617070726f766564000000000000000000000000000000602082015250565b7f646174613a6170706c69636174696f6e2f6a736f6e3b6261736536342c200000600082015250565b7f434f4c4f52000000000000000000000000000000000000000000000000000000600082015250565b7f222c20226465736372697074696f6e223a20224120686967686c79206163636c60008201527f61696d656420636f6c6c656374696f6e206f66205261726920416e696d65204e60208201527f616d6573222c2022696d616765223a2022646174613a696d6167652f7376672b60408201527f786d6c3b6261736536342c000000000000000000000000000000000000000000606082015250565b7f416c6c204e4654277320686173206265656e206d696e74656421000000000000600082015250565b61465581613d62565b811461466057600080fd5b50565b61466c81613d74565b811461467757600080fd5b50565b61468381613d80565b811461468e57600080fd5b50565b61469a81613dcc565b81146146a557600080fd5b5056fe416e204e465420772f20494420257320686173206265656e206d696e74656420746f2025733c73766720786d6c6e733d27687474703a2f2f7777772e77332e6f72672f323030302f73766727207072657365727665417370656374526174696f3d27784d696e594d696e206d656574272076696577426f783d273020302033353020333530273e3c7374796c653e2e62617365207b2066696c6c3a2077686974653b20666f6e742d66616d696c793a2073657269663b20666f6e742d73697a653a20323470783b207d3c2f7374796c653e3c726563742077696474683d273130302527206865696768743d2731303025272066696c6c3d274142434445464748494a4b4c4d4e4f505152535455565758595a6162636465666768696a6b6c6d6e6f707172737475767778797a303132333435363738392b2f272f3e3c7465787420783d273530252720793d273530252720636c6173733d27626173652720646f6d696e616e742d626173656c696e653d276d6964646c652720746578742d616e63686f723d276d6964646c65273ea264697066735822122045008d65a0a4a8f514d5ccc0c1e8e260a393c67a29f5b56144414826a0ceda3864736f6c63430008040033",
  "linkReferences": {},
  "deployedLinkReferences": {}
}